:020000040800F2
:1000000000500020990200088502000887020008BD
:10001000890200088B0200088D0200080000000021
:100020000000000000000000000000008F02000837
:1000300091020008000000009302000895020008E9
:10004000DD020008DD020008DD020008DD02000814
:10005000DD020008DD020008DD020008DD02000804
:10006000DD020008DD020008DD020008DD020008F4
:10007000DD020008DD020008DD020008DD020008E4
:10008000DD020008DD020008DD020008DD020008D4
:10009000DD020008DD020008DD020008DD020008C4
:1000A000DD020008DD020008DD020008DD020008B4
:1000B000DD020008DD020008DD020008DD020008A4
:1000C000DD020008DD020008DD020008DD02000894
:1000D000DD020008DD020008DD020008DD02000884
:1000E000DD020008DD020008DD020008000000005B
:1000F0000000000000000000000000000000000000
:0C01000000000000000000005FF808F1A3
:10010C0010B5054C237833B9044B13B10448AFF345
:10011C0000800123237010BD0000002000000000AF
:10012C00E002000808B5034B1BB103490348AFF3C9
:10013C00008008BD0000000004000020E002000860
:10014C0082B00023019300932C4A136843F480334C
:10015C0013602A4B1B6803F400330093019B01339B
:10016C000193009B1BB9019BB3F5A06FF1D1234BFD
:10017C001B6813F4003F06D001230093009B012B56
:10018C0004D002B0704700230093F7E71C4B1A68A9
:10019C0042F010021A601A6822F007021A601A68FC
:1001AC0042F002021A60A3F580535A685A605A68EA
:1001BC005A605A6842F480625A605A6822F47C127F
:1001CC005A605A6842F4E8125A601A6842F0807217
:1001DC001A600A4B1B6813F0007FFAD0074B5A6861
:1001EC0022F003025A605A6842F002025A60034B32
:1001FC005B6803F00C03082BF9D1C2E70010024036
:10020C000020024008B5FFF79BFF08BD08B5104B56
:10021C001A6842F001021A6059680E4A0A405A6084
:10022C001A6822F0847222F480321A601A6822F45E
:10023C0080221A605A6822F4FE025A604FF41F02A0
:10024C009A60FFF7DFFF044B4FF000629A6008BD25
:10025C00001002400000FFF800ED00E0054B1022FA
:10026C009A61A3F580334FF440125A600022DA6091
:10027C00FEE700BF001002407047FEE7FEE7FEE716
:10028C00FEE770477047704770470000002103E09D
:10029C000A4B5B584350043109480A4B42189A42A6
:1002AC00F6D3094A02E0002342F8043B074B9A427A
:1002BC00F9D3FFF7ABFFFFF7D1FF7047000300083E
:1002CC000000002000000020000000201C00002086
:1002DC00FEE70000F8B500BFF8BC08BC9E467047AE
:0C02EC00F8B500BFF8BC08BC9E46704787
:0402F80031010008C8
:0402FC000D010008E8
:040000050800029954
:00000001FF
